{
    "contractName": "TheBlockchainCoders",
    "abi": [
        {
            "inputs": [
                {
                    "internalType": "uint256",
                    "name": "_initialSupply",
                    "type": "uint256"
                }
            ],
            "stateMutability": "nonpayable",
            "type": "constructor"
        },
        {
            "anonymous": false,
            "inputs": [
                {
                    "indexed": true,
                    "internalType": "address",
                    "name": "_owner",
                    "type": "address"
                },
                {
                    "indexed": true,
                    "internalType": "address",
                    "name": "_spender",
                    "type": "address"
                },
                {
                    "indexed": false,
                    "internalType": "uint256",
                    "name": "_value",
                    "type": "uint256"
                }
            ],
            "name": "Approval",
            "type": "event"
        },
        {
            "anonymous": false,
            "inputs": [
                {
                    "indexed": true,
                    "internalType": "address",
                    "name": "_from",
                    "type": "address"
                },
                {
                    "indexed": true,
                    "internalType": "address",
                    "name": "_to",
                    "type": "address"
                },
                {
                    "indexed": false,
                    "internalType": "uint256",
                    "name": "_value",
                    "type": "uint256"
                }
            ],
            "name": "Transfer",
            "type": "event"
        },
        {
            "inputs": [],
            "name": "_userId",
            "outputs": [
                {
                    "internalType": "uint256",
                    "name": "",
                    "type": "uint256"
                }
            ],
            "stateMutability": "view",
            "type": "function"
        },
        {
            "inputs": [
                {
                    "internalType": "address",
                    "name": "",
                    "type": "address"
                },
                {
                    "internalType": "address",
                    "name": "",
                    "type": "address"
                }
            ],
            "name": "allowance",
            "outputs": [
                {
                    "internalType": "uint256",
                    "name": "",
                    "type": "uint256"
                }
            ],
            "stateMutability": "view",
            "type": "function"
        },
        {
            "inputs": [
                {
                    "internalType": "address",
                    "name": "",
                    "type": "address"
                }
            ],
            "name": "balanceOf",
            "outputs": [
                {
                    "internalType": "uint256",
                    "name": "",
                    "type": "uint256"
                }
            ],
            "stateMutability": "view",
            "type": "function"
        },
        {
            "inputs": [],
            "name": "getTokenHolder",
            "outputs": [
                {
                    "internalType": "address[]",
                    "name": "",
                    "type": "address[]"
                }
            ],
            "stateMutability": "view",
            "type": "function"
        },
        {
            "inputs": [
                {
                    "internalType": "address",
                    "name": "_address",
                    "type": "address"
                }
            ],
            "name": "getTokenHolderData",
            "outputs": [
                {
                    "internalType": "uint256",
                    "name": "",
                    "type": "uint256"
                },
                {
                    "internalType": "address",
                    "name": "",
                    "type": "address"
                },
                {
                    "internalType": "address",
                    "name": "",
                    "type": "address"
                },
                {
                    "internalType": "uint256",
                    "name": "",
                    "type": "uint256"
                },
                {
                    "internalType": "bool",
                    "name": "",
                    "type": "bool"
                }
            ],
            "stateMutability": "view",
            "type": "function"
        },
        {
            "inputs": [
                {
                    "internalType": "uint256",
                    "name": "",
                    "type": "uint256"
                }
            ],
            "name": "holderToken",
            "outputs": [
                {
                    "internalType": "address",
                    "name": "",
                    "type": "address"
                }
            ],
            "stateMutability": "view",
            "type": "function"
        },
        {
            "inputs": [],
            "name": "name",
            "outputs": [
                {
                    "internalType": "string",
                    "name": "",
                    "type": "string"
                }
            ],
            "stateMutability": "view",
            "type": "function"
        },
        {
            "inputs": [],
            "name": "ownerOfContract",
            "outputs": [
                {
                    "internalType": "address",
                    "name": "",
                    "type": "address"
                }
            ],
            "stateMutability": "view",
            "type": "function"
        },
        {
            "inputs": [],
            "name": "standard",
            "outputs": [
                {
                    "internalType": "string",
                    "name": "",
                    "type": "string"
                }
            ],
            "stateMutability": "view",
            "type": "function"
        },
        {
            "inputs": [],
            "name": "symbol",
            "outputs": [
                {
                    "internalType": "string",
                    "name": "",
                    "type": "string"
                }
            ],
            "stateMutability": "view",
            "type": "function"
        },
        {
            "inputs": [
                {
                    "internalType": "address",
                    "name": "",
                    "type": "address"
                }
            ],
            "name": "tokenHolderInfos",
            "outputs": [
                {
                    "internalType": "uint256",
                    "name": "_tokenId",
                    "type": "uint256"
                },
                {
                    "internalType": "address",
                    "name": "_from",
                    "type": "address"
                },
                {
                    "internalType": "address",
                    "name": "_to",
                    "type": "address"
                },
                {
                    "internalType": "uint256",
                    "name": "_totalToken",
                    "type": "uint256"
                },
                {
                    "internalType": "bool",
                    "name": "_tokenHolder",
                    "type": "bool"
                }
            ],
            "stateMutability": "view",
            "type": "function"
        },
        {
            "inputs": [],
            "name": "totalSupply",
            "outputs": [
                {
                    "internalType": "uint256",
                    "name": "",
                    "type": "uint256"
                }
            ],
            "stateMutability": "view",
            "type": "function"
        },
        {
            "inputs": [
                {
                    "internalType": "address",
                    "name": "_to",
                    "type": "address"
                },
                {
                    "internalType": "uint256",
                    "name": "_value",
                    "type": "uint256"
                }
            ],
            "name": "transfer",
            "outputs": [
                {
                    "internalType": "bool",
                    "name": "success",
                    "type": "bool"
                }
            ],
            "stateMutability": "nonpayable",
            "type": "function"
        },
        {
            "inputs": [
                {
                    "internalType": "address",
                    "name": "_from",
                    "type": "address"
                },
                {
                    "internalType": "address",
                    "name": "_to",
                    "type": "address"
                },
                {
                    "internalType": "uint256",
                    "name": "_value",
                    "type": "uint256"
                }
            ],
            "name": "transferFrom",
            "outputs": [
                {
                    "internalType": "bool",
                    "name": "success",
                    "type": "bool"
                }
            ],
            "stateMutability": "nonpayable",
            "type": "function"
        }
    ],
    "bytecode": "6080346101de57601f610b9b38819003918201601f19168301916001600160401b038311848410176101e2578084926020946040528339810103126101de57516100495f546101f6565b601f8111610197575b507f54686520426c6f636b636861696e20436f64657273000000000000000000002a5f55600154610082906101f6565b601f811161014f575b5060066254424360e81b016001556002546100a5906101f6565b601f8111610107575b5060347f40746865626c6f636b636861696e636f6465727320762e302e31000000000000016002553360018060a01b03196004541617600455335f5260086020528060405f205560035560405161096c908161022f8239f35b60025f52601f0160051c7f405787fa12a823e0f2b7631cc41b3ba8828b3321ca811111fa75cd3aa3bb5ace908101905b81811061014457506100ae565b5f8155600101610137565b60015f52601f0160051c7fb10e2d527612073b26eecdfd717e6a320cf44b4afac2b0732d9fcbe2b7fa0cf6908101905b81811061018c575061008b565b5f815560010161017f565b5f8052601f0160051c7f290decd9548b62a8d60345a988386fc84ba6bc95484008f6362f93160ef3e563908101905b8181106101d35750610052565b5f81556001016101c6565b5f80fd5b634e487b7160e01b5f52604160045260245ffd5b90600182811c92168015610224575b602083101461021057565b634e487b7160e01b5f52602260045260245ffd5b91607f169161020556fe60806040526004361015610011575f80fd5b5f3560e01c806306fdde03146107c057806318160ddd146107a357806323b872dd146106ad57806329cc66ed14610630578063468229ae146106085780635a3b7e421461054d57806370a0823114610515578063760b06c5146104d357806382b682631461045657806395d89b4114610352578063a9059cbb146101ec578063ba8e355714610124578063bc4530e7146101075763dd62ed3e146100b3575f80fd5b34610103576040366003190112610103576100cc6108c4565b6100d46108da565b6001600160a01b039182165f908152600960209081526040808320949093168252928352819020549051908152f35b5f80fd5b34610103575f366003190112610103576020600554604051908152f35b34610103575f366003190112610103576040518060206006549283815201809260065f527ff652222313e28459528d920b65115c16c04f3efc82aaedc97be59f3f377c0d3f905f5b8181106101cd5750505081610182910382610878565b604051918291602083019060208452518091526040830191905f5b8181106101ab575050500390f35b82516001600160a01b031684528594506020938401939092019160010161019d565b82546001600160a01b031684526020909301926001928301920161016c565b34610103576040366003190112610103576102056108c4565b60243590335f5260086020528160405f205410610103576005545f19811461033e57600101600555335f52600860205260405f2061024483825461091c565b905560018060a01b031690815f52600860205260405f20610266828254610929565b90555f8281526007602052604090206002810180546001600160a01b0319908116851790915560018083018054909216331790915560048201805460ff191690911790556003810182905560055490556006546801000000000000000081101561032a578060016102da92016006556108f0565b81549060031b9084821b9160018060a01b03901b19161790556040519081527fddf252ad1be2c89b69c2b068fc378daa952ba7f163c4a11628f55a4df523b3ef60203392a3602060405160018152f35b634e487b7160e01b5f52604160045260245ffd5b634e487b7160e01b5f52601160045260245ffd5b34610103575f366003190112610103576040515f6001548060011c9060018116801561044c575b6020831081146104385782855290811561041457506001146103b6575b6103b2836103a681850382610878565b6040519182918261089a565b0390f35b60015f9081527fb10e2d527612073b26eecdfd717e6a320cf44b4afac2b0732d9fcbe2b7fa0cf6939250905b8082106103fa575090915081016020016103a6610396565b9192600181602092548385880101520191019092916103e2565b60ff191660208086019190915291151560051b840190910191506103a69050610396565b634e487b7160e01b5f52602260045260245ffd5b91607f1691610379565b34610103576020366003190112610103576001600160a01b036104776108c4565b165f90815260076020908152604091829020805460028201546001830154600384015460049094015486519384526001600160a01b03928316958401959095521693810193909352606083015260ff161515608082015260a090f35b3461010357602036600319011261010357600435600654811015610103576104fc6020916108f0565b905460405160039290921b1c6001600160a01b03168152f35b34610103576020366003190112610103576001600160a01b036105366108c4565b165f526008602052602060405f2054604051908152f35b34610103575f366003190112610103576040515f6002548060011c906001811680156105fe575b6020831081146104385782855290811561041457506001146105a0576103b2836103a681850382610878565b60025f9081527f405787fa12a823e0f2b7631cc41b3ba8828b3321ca811111fa75cd3aa3bb5ace939250905b8082106105e4575090915081016020016103a6610396565b9192600181602092548385880101520191019092916105cc565b91607f1691610574565b34610103575f366003190112610103576004546040516001600160a01b039091168152602090f35b34610103576020366003190112610103576001600160a01b036106516108c4565b165f90815260076020908152604091829020805460018201546002830154600384015460049094015486519384526001600160a01b03928316958401959095521693810193909352606083015260ff161515608082015260a090f35b34610103576060366003190112610103576106c66108c4565b6106ce6108da565b6001600160a01b039091165f8181526008602052604090205460443592908311610103575f82815260096020908152604080832033845290915290205483116101035760207fddf252ad1be2c89b69c2b068fc378daa952ba7f163c4a11628f55a4df523b3ef91835f526008825260405f2061074b86825461091c565b905560018060a01b031693845f526008825260405f2061076c828254610929565b90555f84815260098352604080822033835284529020805461078f90839061091c565b9055604051908152a3602060405160018152f35b34610103575f366003190112610103576020600354604051908152f35b34610103575f366003190112610103576040515f5f548060011c9060018116801561086e575b602083108114610438578285529081156104145750600114610812576103b2836103a681850382610878565b5f8080527f290decd9548b62a8d60345a988386fc84ba6bc95484008f6362f93160ef3e563939250905b808210610854575090915081016020016103a6610396565b91926001816020925483858801015201910190929161083c565b91607f16916107e6565b90601f8019910116810190811067ffffffffffffffff82111761032a57604052565b602060409281835280519182918282860152018484015e5f828201840152601f01601f1916010190565b600435906001600160a01b038216820361010357565b602435906001600160a01b038216820361010357565b6006548110156109085760065f5260205f2001905f90565b634e487b7160e01b5f52603260045260245ffd5b9190820391821161033e57565b9190820180921161033e5756fea2646970667358221220eb59bf01785b4729776434543d4060762d7a70736106af6b547eecf476f7c4bb64736f6c634300081c0033",
    "sourcePath": "/home/karmveer/icon-token-sale/contracts/TheBlockchainCoders.sol",
    "compiler": {
        "name": "solc",
        "version": "0.8.28+commit.7893614a"
    },
    "functionHashes": {
        "_userId()": "bc4530e7",
        "allowance(address,address)": "dd62ed3e",
        "balanceOf(address)": "70a08231",
        "getTokenHolder()": "ba8e3557",
        "getTokenHolderData(address)": "82b68263",
        "holderToken(uint256)": "760b06c5",
        "name()": "06fdde03",
        "ownerOfContract()": "468229ae",
        "standard()": "5a3b7e42",
        "symbol()": "95d89b41",
        "tokenHolderInfos(address)": "29cc66ed",
        "totalSupply()": "18160ddd",
        "transfer(address,uint256)": "a9059cbb",
        "transferFrom(address,address,uint256)": "23b872dd"
    },
    "gasEstimates": {
        "creation": {
            "codeDepositCost": "482400",
            "executionCost": "infinite",
            "totalCost": "infinite"
        },
        "external": {
            "_userId()": "2512",
            "allowance(address,address)": "2848",
            "balanceOf(address)": "2530",
            "getTokenHolder()": "infinite",
            "getTokenHolderData(address)": "11155",
            "holderToken(uint256)": "6779",
            "name()": "infinite",
            "ownerOfContract()": "2360",
            "standard()": "infinite",
            "symbol()": "infinite",
            "tokenHolderInfos(address)": "11045",
            "totalSupply()": "2270",
            "transfer(address,uint256)": "247150",
            "transferFrom(address,address,uint256)": "infinite"
        },
        "internal": {
            "inc()": "infinite"
        }
    }
}