{
    "contractName": "TokenSale",
    "abi": [
        {
            "inputs": [
                {
                    "internalType": "contract TheBlockchainCoders",
                    "name": "_tokenContract",
                    "type": "address"
                },
                {
                    "internalType": "uint256",
                    "name": "_tokenPrice",
                    "type": "uint256"
                }
            ],
            "stateMutability": "nonpayable",
            "type": "constructor"
        },
        {
            "anonymous": false,
            "inputs": [
                {
                    "indexed": false,
                    "internalType": "address",
                    "name": "_buyer",
                    "type": "address"
                },
                {
                    "indexed": false,
                    "internalType": "uint256",
                    "name": "_amount",
                    "type": "uint256"
                }
            ],
            "name": "Sell",
            "type": "event"
        },
        {
            "inputs": [
                {
                    "internalType": "uint256",
                    "name": "_numberOfTokens",
                    "type": "uint256"
                }
            ],
            "name": "buyToken",
            "outputs": [],
            "stateMutability": "payable",
            "type": "function"
        },
        {
            "inputs": [],
            "name": "endSale",
            "outputs": [],
            "stateMutability": "nonpayable",
            "type": "function"
        },
        {
            "inputs": [],
            "name": "tokenContract",
            "outputs": [
                {
                    "internalType": "contract TheBlockchainCoders",
                    "name": "",
                    "type": "address"
                }
            ],
            "stateMutability": "view",
            "type": "function"
        },
        {
            "inputs": [],
            "name": "tokenPrice",
            "outputs": [
                {
                    "internalType": "uint256",
                    "name": "",
                    "type": "uint256"
                }
            ],
            "stateMutability": "view",
            "type": "function"
        },
        {
            "inputs": [],
            "name": "tokensSold",
            "outputs": [
                {
                    "internalType": "uint256",
                    "name": "",
                    "type": "uint256"
                }
            ],
            "stateMutability": "view",
            "type": "function"
        }
    ],
    "bytecode": "608034608557601f6104c938819003918201601f19168301916001600160401b03831184841017608957808492604094855283398101031260855780516001600160a01b0381169190829003608557602001515f80546001600160a01b031990811633179091556001805490911690921790915560025560405161042b908161009e8239f35b5f80fd5b634e487b7160e01b5f52604160045260245ffdfe60806040526004361015610011575f80fd5b5f3560e01c80632d296bf1146101fb578063380d831b146100b6578063518ab2a81461009957806355a373d61461007157637ff9b59614610050575f80fd5b3461006d575f36600319011261006d576020600254604051908152f35b5f80fd5b3461006d575f36600319011261006d576001546040516001600160a01b039091168152602090f35b3461006d575f36600319011261006d576020600354604051908152f35b3461006d575f36600319011261006d575f546001600160a01b03163381900361006d576001546040516370a0823160e01b81523060048201526001600160a01b0390911691602082602481865afa918215610182575f926101c5575b5060405163a9059cbb60e01b81526001600160a01b0390911660048201526024810191909152906020908290815f81604481015b03925af1908115610182575f91610196575b501561006d575f805481908190819047906001600160a01b031682821561018d575bf11561018257005b6040513d5f823e3d90fd5b506108fc61017a565b6101b8915060203d6020116101be575b6101b081836103a7565b8101906103dd565b81610158565b503d6101a6565b91506020823d6020116101f3575b816101e0602093836103a7565b8101031261006d57905190610146610112565b3d91506101d3565b602036600319011261006d576004356002545f90801590811561036f575b501561006d57340361006d576001546040516370a0823160e01b81523060048201526001600160a01b0390911690602081602481855afa80156101825783915f9161033a575b501061006d57670de0b6b3a7640000820290828204670de0b6b3a764000014831517156103075760405163a9059cbb60e01b81523360048201526024810192909252602090829060449082905f905af1908115610182575f9161031b575b501561006d57600354818101809111610307576003556040805133815260208101929092527f5e5e995ce3133561afceaa51a9a154d5db228cd7525d34df5185582c18d3df0991a1005b634e487b7160e01b5f52601160045260245ffd5b610334915060203d6020116101be576101b081836103a7565b826102bd565b9150506020813d602011610367575b81610356602093836103a7565b8101031261006d578290518461025f565b3d9150610349565b90915080830290838204811484151715610307578192610393578391041483610219565b634e487b7160e01b5f52601260045260245ffd5b90601f8019910116810190811067ffffffffffffffff8211176103c957604052565b634e487b7160e01b5f52604160045260245ffd5b9081602091031261006d5751801515810361006d579056fea26469706673582212201c33b30627d36775ef83c3f77df5c435a0e82b43c4a7f86e262ef731d872d16064736f6c634300081c0033",
    "sourcePath": "/home/karmveer/icon-token-sale/contracts/TokenSaleContract.sol",
    "compiler": {
        "name": "solc",
        "version": "0.8.28+commit.7893614a"
    },
    "functionHashes": {
        "buyToken(uint256)": "2d296bf1",
        "endSale()": "380d831b",
        "tokenContract()": "55a373d6",
        "tokenPrice()": "7ff9b596",
        "tokensSold()": "518ab2a8"
    },
    "gasEstimates": {
        "creation": {
            "codeDepositCost": "213400",
            "executionCost": "infinite",
            "totalCost": "infinite"
        },
        "external": {
            "buyToken(uint256)": "infinite",
            "endSale()": "infinite",
            "tokenContract()": "2338",
            "tokenPrice()": "2333",
            "tokensSold()": "2292"
        },
        "internal": {
            "multiply(uint256,uint256)": "infinite"
        }
    }
}